{
  "_format": "hh-sol-artifact-1",
  "contractName": "Gamble",
  "sourceName": "contracts/gamble.sol",
  "abi": [
    {
      "anonymous": false,
      "inputs": [
        {
          "indexed": true,
          "internalType": "address",
          "name": "user",
          "type": "address"
        },
        {
          "indexed": false,
          "internalType": "uint256",
          "name": "balance",
          "type": "uint256"
        }
      ],
      "name": "BalanceInitialized",
      "type": "event"
    },
    {
      "anonymous": false,
      "inputs": [
        {
          "indexed": true,
          "internalType": "address",
          "name": "user",
          "type": "address"
        },
        {
          "indexed": false,
          "internalType": "uint256",
          "name": "amount",
          "type": "uint256"
        },
        {
          "indexed": false,
          "internalType": "bool",
          "name": "won",
          "type": "bool"
        }
      ],
      "name": "BetPlaced",
      "type": "event"
    },
    {
      "inputs": [
        {
          "internalType": "address",
          "name": "",
          "type": "address"
        }
      ],
      "name": "balance",
      "outputs": [
        {
          "internalType": "uint256",
          "name": "",
          "type": "uint256"
        }
      ],
      "stateMutability": "view",
      "type": "function"
    },
    {
      "inputs": [
        {
          "internalType": "uint256",
          "name": "amount",
          "type": "uint256"
        }
      ],
      "name": "bet",
      "outputs": [],
      "stateMutability": "nonpayable",
      "type": "function"
    },
    {
      "inputs": [],
      "name": "setBalance",
      "outputs": [],
      "stateMutability": "nonpayable",
      "type": "function"
    }
  ],
  "bytecode": "0x6080604052348015600f57600080fd5b5061082d8061001f6000396000f3fe608060405234801561001057600080fd5b50600436106100415760003560e01c80631a61746e146100465780637365870b14610050578063e3d670d71461006c575b600080fd5b61004e61009c565b005b61006a600480360381019061006591906103eb565b6101b2565b005b61008660048036038101906100819190610476565b610363565b60405161009391906104b2565b60405180910390f35b60008060003373ffffffffffffffffffffffffffffffffffffffff1673ffffffffffffffffffffffffffffffffffffffff168152602001908152602001600020541461011d576040517f08c379a00000000000000000000000000000000000000000000000000000000081526004016101149061052a565b60405180910390fd5b60646000803373ffffffffffffffffffffffffffffffffffffffff1673ffffffffffffffffffffffffffffffffffffffff168152602001908152602001600020819055503373ffffffffffffffffffffffffffffffffffffffff167f9ccb3d22ae71cface8a03d569b1cafb8067dfc7d47791835a9986f608383b40760646040516101a8919061058f565b60405180910390a2565b60008111801561020057506000803373ffffffffffffffffffffffffffffffffffffffff1673ffffffffffffffffffffffffffffffffffffffff168152602001908152602001600020548111155b61023f576040517f08c379a0000000000000000000000000000000000000000000000000000000008152600401610236906105f6565b60405180910390fd5b600080600261024c61037b565b6102569190610645565b14905080156102b957816000803373ffffffffffffffffffffffffffffffffffffffff1673ffffffffffffffffffffffffffffffffffffffff16815260200190815260200160002060008282546102ad91906106a5565b9250508190555061030f565b816000803373ffffffffffffffffffffffffffffffffffffffff1673ffffffffffffffffffffffffffffffffffffffff168152602001908152602001600020600082825461030791906106d9565b925050819055505b3373ffffffffffffffffffffffffffffffffffffffff167ff8e99859e696debf4ef1752d671f759f7f63a1116efe995d789edfb3849c35498383604051610357929190610728565b60405180910390a25050565b60006020528060005260406000206000915090505481565b6000424433604051602001610392939291906107ba565b6040516020818303038152906040528051906020012060001c905090565b600080fd5b6000819050919050565b6103c8816103b5565b81146103d357600080fd5b50565b6000813590506103e5816103bf565b92915050565b600060208284031215610401576104006103b0565b5b600061040f848285016103d6565b91505092915050565b600073ffffffffffffffffffffffffffffffffffffffff82169050919050565b600061044382610418565b9050919050565b61045381610438565b811461045e57600080fd5b50565b6000813590506104708161044a565b92915050565b60006020828403121561048c5761048b6103b0565b5b600061049a84828501610461565b91505092915050565b6104ac816103b5565b82525050565b60006020820190506104c760008301846104a3565b92915050565b600082825260208201905092915050565b7f42616c616e636520616c72656164792073657400000000000000000000000000600082015250565b60006105146013836104cd565b915061051f826104de565b602082019050919050565b6000602082019050818103600083015261054381610507565b9050919050565b6000819050919050565b6000819050919050565b600061057961057461056f8461054a565b610554565b6103b5565b9050919050565b6105898161055e565b82525050565b60006020820190506105a46000830184610580565b92915050565b7f496e76616c69642062657420616d6f756e740000000000000000000000000000600082015250565b60006105e06012836104cd565b91506105eb826105aa565b602082019050919050565b6000602082019050818103600083015261060f816105d3565b9050919050565b7f4e487b7100000000000000000000000000000000000000000000000000000000600052601260045260246000fd5b6000610650826103b5565b915061065b836103b5565b92508261066b5761066a610616565b5b828206905092915050565b7f4e487b7100000000000000000000000000000000000000000000000000000000600052601160045260246000fd5b60006106b0826103b5565b91506106bb836103b5565b92508282019050808211156106d3576106d2610676565b5b92915050565b60006106e4826103b5565b91506106ef836103b5565b925082820390508181111561070757610706610676565b5b92915050565b60008115159050919050565b6107228161070d565b82525050565b600060408201905061073d60008301856104a3565b61074a6020830184610719565b9392505050565b6000819050919050565b61076c610767826103b5565b610751565b82525050565b60008160601b9050919050565b600061078a82610772565b9050919050565b600061079c8261077f565b9050919050565b6107b46107af82610438565b610791565b82525050565b60006107c6828661075b565b6020820191506107d6828561075b565b6020820191506107e682846107a3565b60148201915081905094935050505056fea2646970667358221220f49edf9eed479982f7aadbaea3c97067533a89f1a963ca6a98813d66f258a61664736f6c634300081b0033",
  "linkReferences": {},
  "deployedLinkReferences": {}
}